:100000000C94150B0C94151B0C94EE1A0C943D0BD0
:100010000C943D0B0C943D0B0C943D0B0C943D0B40
:100020000C943D0B0C943D0B0C943D0B0C94B31CA9
:100030000C943D0B0C943D0B0C943D0B0C943D0B20
:100040000C94A41A0C943D0B0C94621B0C943C1B56
:100050000C943D0B0C943D0B0C943D0B0C943D0B00
:100060000C94941B0C943D0BAED580A83FD300405C
:100070008D142002A1C8DA12817FD9F1DB40A4A639
:10008000AF757300202D2000202D2000202D200092
:100090002E002E002E0000000A0F205F000000003E
:1000A0000000000000000000000000000000000050
:1000B00000000000FEFE0000000000000000191912
:1000C0000000000000001E1E00001E1E00000000B8
:1000D00000000000000000000030FEFE3030FEFE98
:1000E000300000031F1F03031F1F03000070F8D818
:1000F000FE9898000000000C18187F191F0F0000D0
:100100001CB6A2F6CC60602030000101000E1B116D
:100110001B0E00000000DC7EE6C6860C8080000717
:100120000F1C18191F1E1F13000000001E1E0000C8
:10013000000000000000000000000000000000E0DF
:10014000FC1E02000000000000073F784000000095
:100150000000021EFCE000000000000040783F07A5
:100160000000000000487830FE30784800000000B1
:10017000000001000000000000808080F0F080801E
:100180008000000101010F0F0101010000000000CB
:10019000000000000000000000407C3C0000000067
:1001A0000000000000000000000000000303030343
:1001B000030000000000000000000000000000003C
:1001C00000001C1C0000000000000000C0F03C0EFD
:1001D00002000020381E07010000000000F0FC0EA5
:1001E000C6C60EFCF80000030F1C18181C0F0700F1
:1001F00000000C06FEFE00000000001818181F1F6B
:1002000018181800000C06060686C67C3800001870
:100210001C1E1B1918181800000C06C6C6C6C6FC02
:100220003800000C18181818190F0F000080C07043
:10023000180EFEFE00000003030303031F1F03004C
:1002400000FE7E666666E6C68000000C1818181868
:100250001C0F070000F0FCCE6666E6CC80000007AD
:100260000F1C18181C0F07000006060606E6FE3EC7
:100270000E000000101C0F03000000000038FCC638
:10028000C6C6C6FC3800000F0F181818180F0F004C
:100290000078FCCE8686CEFCF80000000C191919F7
:1002A0001C0F030000000000E0E000000000000060
:1002B00000001C1C0000000000000000E0E0000046
:1002C0000000000000407C3C00000000008080C076
:1002D00040606020300000010103020606040C00AB
:1002E00000606060606060606000000606060606F0
:1002F00006060600003020606040C0808000000CD0
:100300000406060203010100000C0686C6667E1C78
:1003100000000000001B1B0000000000E0F0389C03
:10032000CCCCDCF8F000071F3873676666772700CF
:100330000000C0FC3E3EFCC0000000181F0F03037D
:100340000F1F180000FEFEC6C6C6C6FC3C00001FFC
:100350001F181818181F0F0000F0FC0C06060606E0
:100360000C0000030F0C181818180C0000FEFE06F5
:1003700006060CFCF000001F1F1818180C0F0300D5
:1003800000FEFEC6C6C6C6C60600001F1F18181807
:100390001818180000FEFEC6C6C6C6C60600001F16
:1003A0001F0000000000000000F0FC0C068686869E
:1003B0008C0000030F0C1819191F0F0000FEFEC05F
:1003C000C0C0C0FEFE00001F1F000000001F1F0075
:1003D00000000606FEFE06060000000018181F1F9B
:1003E0001818000000000000060606FEFE00000CC3
:1003F00018181818180F0F0000FEFEE0F0FC0E068B
:100400000200001F1F0000030F1E180000FEFE0068
:10041000000000000000001F1F181818181818000E
:1004200000FEFE3EF0F03EFEFE00001F1F00010138
:10043000001F1F0000FEFE1EF0C000FEFE00001F99
:100440001F0000031E1F1F0000F0FC0E06060EFC1E
:10045000F00000030F1C18181C0F030000FEFEC65E
:10046000C6C6C67C7C00001F1F0000000000000004
:1004700000F0FC0E06060EFCF00000030F1C18181E
:100480003C6F070000FEFEC6C6C6C6FC3C00001F4F
:100490001F000001031F1E1000387CE6C6C6C68C74
:1004A0000000000C18181818190F0F000006060697
:1004B000FEFE06060600000000001F1F00000000F0
:1004C00000FEFE00000000FEFE0000070F1C1818D2
:1004D0001C0F07000006FEFC0000FCFE06000000EA
:1004E000001F1F1F1F0000001EFEE000F0F000E0D4
:1004F000FE1E001F1F1E01011E1F1F0000020E3ED8
:10050000F8F83E0E020000101C1F03031F1C100011
:10051000020E3E78E0E0783E0E02000000001F1F51
:100520000000000000060686C6F67E1E0E00001CB7
:100530001E1F1B1818181800000000FEFE02020003
:1005400000000000007F7F404000000000020E38E5
:10055000E080000000000000000000030E382000D2
:1005600000000202FEFE00000000000040407F7F0D
:100570000000000010181C0E060E1C1810000000D1
:10058000000000000000000000000000000000006B
:1005900000004040404040404040404000000103D7
:1005A0000604000000000000000000000000000041
:1005B00000006030B0B0B0F0E000000E1F1B191951
:1005C0000D1F1F0000FEFE60303070E0C000001FF5
:1005D0001F0C18181C0F070000C0E07030303030BE
:1005E000600000070F1C181818180C0000C0E070FD
:1005F000303060FEFE0000070F1C18180C1F1F0093
:1006000000C0E0B0B0B0B0E0C00000070F1D191985
:1006100019190D00003030FCFE363636000000009F
:10062000001F1F000000000000C0E070303060F0CC
:10063000F0000003376E6C6C667F3F0000FEFE60CA
:10064000303030F0E000001F1F000000001F1F00CE
:1006500000003030F7F700000000001818181F1FC6
:100660001818180000003030F7F700000000006094
:1006700060607F3F0000000000FEFE80E0703010F0
:100680000000001F1F0103071E181000000606FED1
:10069000FE00000000000000000F1F1818180000E6
:1006A00000F0F030F0E030F0E000001F1F001F1FEE
:1006B000001F1F0000F0F060303030F0E000001F3D
:1006C0001F000000001F1F0000C0E070303070E00D
:1006D000C00000070F1C18181C0F070000F0F06086
:1006E000303070E0C000007F7F060C0C0E07030066
:1006F00000C0E070303060F0F0000003070E0C0C1A
:10070000067F7F000000F0F06030303030000000E5
:100710001F1F00000000000000E0F0B0B0B0B030DB
:100720006000000C191919191B1F0E00003030FC55
:10073000FC30303000000000000F1F1818180000B7
:1007400000F0F000000000F0F000000F1F18181873
:100750000C1F1F000030F0E00000E0F0300000004F
:10076000010F1E1E0F01000070F00000C0C000004D
:10077000F07000071F1E03031E1F0700001030F05B
:10078000C0C0F03010000010181E07071E1810001F
:100790000010F0F08000F0F03000000060637F1F78
:1007A0000F0100000030303030B0F0703000001821
:1007B0001C1E1B191818180000000000FCFE020285
:1007C0000000000001013E7E4040000000000000EB
:1007D000FEFE00000000000000007F7F000000001F
:1007E00000000202FEFC00000000000040407E3ECF
:1007F000010100000080C0C0C0808080C0000001F6
:1008000000000001010100005448524F54544C456F
:100810002048494748212100554E4B4E4F574E0026
:1008200045534300504153535448524F5547480095
:1008300046494E452D54554E45004D414E55414C6F
:100840000053706565643A20005357454550202099
:10085000202020436F756E743A200043454E544566
:100860005245443A205374616E646172640043459A
:100870004E54455245443A205370656B7472756D01
:100880000052616E67653A2000566F6C746167654F
:100890002D2020203A200056005600560055534285
:1008A0003A004F55543A00494E203A00564F4C54A6
:1008B000414745530000000507206100000000008B
:1008C00000005F00000007000700147F147F14245D
:1008D0002A7F2A12231308646236495522500005E4
:1008E000030000001C2241000041221C00082A1CB9
:1008F0002A0808083E0808005030000008080808C8
:1009000008006060000020100804023E5149453E86
:1009100000427F400042615149462141454B311818
:1009200014127F1027454545393C4A494930017129
:100930000905033649494936064949291E00363614
:10094000000000563600000008142241141414144C
:100950001441221408000201510906324979413E2E
:100960007E1111117E7F494949363E414141227F26
:100970004141221C7F494949417F090901013E410A
:100980004151327F0808087F00417F4100204041EB
:100990003F017F081422417F404040407F02040213
:1009A0007F7F0408107F3E4141413E7F09090906CF
:1009B0003E4151215E7F0919294646494949310185
:1009C000017F01013F4040403F1F2040201F7F200A
:1009D00018207F63140814630304780403615149E9
:1009E000454300007F4141020408102041417F003F
:1009F00000040201020440404040400001020400A3
:100A000020545454787F484444383844444420386F
:100A10004444487F3854545418087E09010208148D
:100A200054543C7F0804047800447D400020404436
:100A30003D00007F10284400417F40007C041804E2
:100A4000787C0804047838444444387C141414082E
:100A5000081414187C7C08040408485454542004D6
:100A60003F4440203C4040207C1C2040201C3C4017
:100A700030403C44281028440C5050503C446454AE
:100A80004C44000836410000007F00000041360859
:100A90000008082A1C08081C2A080800060909067C
:100AA000416476616E63656420536572766F20548D
:100AB00065737465720013220A0B2060020103063D
:100AC00004080701020205050203010505050505E5
:100AD00005050505050501020505050409070505C8
:100AE00006040406060103050408060605070504B6
:100AF0000506070B060506020502050602050504A4
:100B000005050405050102040108050505050304A2
:100B1000040505090505030301030506000000009F
:100B20007E200E000E00000040E85EE85E08002017
:100B3000002000008C1223C4006020000C12D22C74
:100B4000D02C22C00020000000202000C02C123237
:100B5000CCC020002020200000200E00F80620C07D
:100B600006F8C02014083E081400000000002020F1
:100B7000F8202000000000000000806020202000FD
:100B8000000000200080700C03C020000000FC0268
:100B90000202FC00202020000402FE000020202091
:100BA0002020048242221C202020202084121212A5
:100BB000EC0020202000605846FE4000000020008D
:100BC0009E121212E20020202000F8141212E200FD
:100BD000202020000282621A060020000000EC1291
:100BE0001212EC00202020001C2222A27C202020B7
:100BF000000008200008806020205050880000007D
:100C0000000050505050500000000000885050200C
:100C10002000000000000272120C00200000F0080A
:100C200064928A4ABA847800204040404000000024
:100C30008060584658608020000000000020FE12AE
:100C4000121CE02020202000FC0202028400202050
:100C50002000FE0202028478202020200000FE12E4
:100C6000121220202020FE12121220000000788490
:100C7000022222E4000020202000FE10101010FEAE
:100C8000200000000020FE200000FE202000FE10BA
:100C900028C4022000000020FE00000020202020A8
:100CA000FE067880807806FE2000002020000020CC
:100CB000FE06186080FE200000002020FC020202D8
:100CC00002FC002020202000FE2222221C20000006
:100CD0000000FC02020202FC000020202020404014
:100CE000FE2222629C20000000208C1222C40020E0
:100CF00020000202FE02020000200000FE000000B0
:100D000000FE0020202020000618608060180600E9
:100D100000002000000006788060180618608078C7
:100D200006000020000000000020000002CC30304F
:100D3000CC022000000000200618E0180600002069
:100D40000000824222120A06202020202020FE02DB
:100D5000E080030C70800000000020C002FE80E0F4
:100D6000100C020C10000000000000000000000049
:100D700080808080808001020000C8282828F00040
:100D800020202020FE080808F02020202000F00865
:100D9000080800202020F0080808FE00202020205D
:100DA000F028282830002020202008FC0A0A0020F3
:100DB0000000B048483808C0A0A0A040FE100808B5
:100DC000F02000000020FA2000FA8060FE20D00809
:100DD00020000020FE20F8100808F00808F020008D
:100DE000000020000020F8100808F020000000207B
:100DF000F0080808F00020202000F8080808F0E0BB
:100E000020202000F0080808F800202020E0F80842
:100E100008200000302848C82020200008FC0808CE
:100E200000002020F8000080F8002020002018603A
:100E300080601800002000001860806018608060EA
:100E4000180000200000002000000890609008209A
:100E500000000020186080601800C0200000886832
:100E60001820202020DC02006080FEE002DC2080D0
:100E7000600010081810080000000000FE020A7A46
:100E800002FE2020202020204368616F74696342A5
:100E90007261696E2E6D650022080D0E20600402DD
:100EA00005060708090203030508020402040704F3
:100EB00007070707070707070202070707080E09C2
:100EC00008080807070908020708070B08090709A7
:100ED00009070808090D07080804040406080307A1
:100EE00007060707050707020306020A07070707A1
:100EF00005060507070B060705050105070800009D
:100F0000000000000000FEFE18181E1E001E1E003D
:100F10000000000090F89E90F89E1C00001C00004D
:100F2000183C26FF66CC88040C183C180C041C22C4
:100F30001CC0308E408000001804000C100C80CCC7
:100F40007E72F2DE0C80000C1C1010101C0C1C10A9
:100F50001E1E0000F0FC061C7CC006FCF0C07C1CC1
:100F600014140E14140000000000606060FCFC60AB
:100F700060600000000C0C00000000005838C0C089
:100F8000C0C0000000000000181800C03806180497
:100F90000000F8FC0E060EFCF8040C1C181C0C04D7
:100FA000180CFEFE00001C1C181C86C6663E1C1891
:100FB0001C1C18181818888C062626FEDC040C1C2D
:100FC00018180C04C0E0B88CFEFE80040404041C55
:100FD0001C04707E3E3636F6C60C1C1818180C041D
:100FE000F8FC6E6666EECC040C1818181C0C06068D
:100FF00006E6761E0600001C1C0000009CFE6666CD
:1010000066FE9C0C1C1818181C0C3C7E666666FC60
:10101000F80C1C18181C0C04181818181818583834
:101020006060F0F098980C0000000004040CD8D820
:10103000D8D8D8D8D8000000000000000C9898F04C
:10104000F060600C040400000000080C06C6E676A0
:101050003C180000001818000000E03008C4F63A00
:101060001A1AF2FA7E0408F00C30604C9C98988CA6
:101070009C9C90484C2000C0F8BE86BEF8C000186A
:101080001C04040404041C18FEFE66666666FEDC8E
:101090001C1C181818181C0CF8FC0E06060E9C08D0
:1010A000040C1C18181C0C04FEFE0606060EFCF8A8
:1010B0001C1C1818181C0C04FEFE66666666661C6E
:1010C0001C1818181818FEFE66666666061C1C00BA
:1010D00000000000F8FC0E0606C6CEDCC8040C1C9E
:1010E000181818180C04FEFE60606060FEFE1C1CE0
:1010F000000000001C1CFEFE1C1C8080000000FE86
:10110000FE0C1C1818181C0CFEFE603078EC8602D1
:101110001C1C000000041C18FEFE00000000001C47
:101120001C1818181818FEFE0E7CE000E07C0EFE5D
:10113000FE1C1C00000C1C0C00001C1CFEFE1C787D
:10114000E080FEFE1C1C0000040C1C1CF8FC0E06BB
:1011500006060EFCF8040C1C1818181C0C04FEFEE5
:101160006666667E3C1C1C0000000000F8FC0E0653
:1011700086060EFCF8040C1C18181C0C1C24FEFE21
:101180006666E6E6BE1C001C1C0000000C1C181065
:101190003C7E666666EECC0C1C1818181C0C060605
:1011A00006FEFE0606060000001C1C000000FEFEF7
:1011B00000000000FEFE040C1C18181C0C04021E8B
:1011C000FCE000E0FC1E020000001C1C1C000000F3
:1011D00006FEF800F0FE0EFEF000F8FE0600001C11
:1011E0001C1C0000001C1C1C0000060EF8F0F80E71
:1011F00006181C0400041C18060E38F0F0380E0601
:101200000000001C1C000000060686E6761E0E0686
:10121000181C1C1818181818FEFE0606FCFCC0C086
:101220000638C000000004180606FEFEC0C0FCFC24
:1012300020380E0E382000000000000000000000E2
:101240000000000080808080808080800206040092
:1012500000001098D858F8F0000C1C18180C1C103E
:10126000FEFE301838F0E01C1C0C181C0C04E0F0DA
:1012700018183830040C18181C0CE0F0381830FE20
:10128000FE040C1C180C1C1CE0F0D8D8D8F0E004AC
:101290000C181818180818FCFE1A1A001C1C00005C
:1012A000E0F0381830F8F864ECDCD8CCFC7CFEFEBA
:1012B000301818F8F01C1C0000001C1CFAFA1C1C4A
:1012C00000FAFAC0FC7CFEFEE0F098081C1C00044A
:1012D0001C18FEFE1C1CF8F81018F8F01818F8F08E
:1012E0001C1C00001C1C00001C1CF8F8301818F80E
:1012F000F01C1C0000001C1CE0F0381838F0E00462
:101300000C1C181C0C04F8F8301838F0E0FCFC0C2D
:10131000181C0C04E0F0381830F8F8040C1C180CF9
:10132000FCFCF8F83018181C1C00000070F8D8D825
:10133000D890081818181C0C18FCFE1818000C1C63
:101340001818F8F8000000F8F80C1C18180C1C1CF1
:1013500038F8C000C0F83800001C1C1C000018F849
:10136000E000F038F000E0F81800001C1C0C000C45
:101370001C1C00001838E0E03818181C04041C1865
:1013800018F8E000E0F8180084FCF83C0400189815
:10139000D878381C1C18181880FC7E0606007CFCC7
:1013A000C0C0FEFC06067EFC80C0C0FC7C00603035
:1013B000307060603000000000000000FE02020299
:1013C000020202FE1C1010101010101C00030C0F63
:1013D00030333C3FC0C3CCCFF0F3FCFF0000050727
:1013E0002061000000000000005F0000000700070F
:1013F00000147F147F14242A7F2A122313086462A6
:1014000036495522500005030000001C224100000F
:1014100041221C00082A1C2A0808083E080800501F
:10142000300000080808080800606000002010086C
:1014300004023E5149453E00427F4000426151490D
:10144000462141454B311814127F10274545453937
:101450003C4A494930017109050336494949360674
:101460004949291E003636000000563600000008A3
:1014700014224114141414144122140800020151BE
:101480000906324979413E7E1111117E7F49494951
:10149000363E414141227F4141221C7F4949494119
:1014A0007F090901013E414151327F0808087F0050
:1014B000417F41002040413F017F081422417F408D
:1014C0004040407F0204027F7F0408107F3E41417C
:1014D000413E7F090909063E4151215E7F091929D4
:1014E00046464949493101017F01013F4040403FA3
:1014F0001F2040201F7F2018207F631408146303DF
:1015000004780403615149454300007F41410204CE
:1015100008102041417F00000402010204404040C5
:101520004040000102040020545454787F48444451
:10153000383844444420384444487F38545454187C
:10154000087E090102081454543C7F080404780002
:10155000447D40002040443D00007F10284400416D
:101560007F40007C041804787C08040478384444E4
:1015700044387C14141408081414187C7C080404DF
:10158000084854545420043F4440203C4040207CB0
:101590001C2040201C3C4030403C44281028440C77
:1015A0005050503C4464544C440008364100000004
:1015B0007F0000004136080008082A1C08081C2A81
:1015C00008080006090906680019804000000000AC
:1015D00000240027002A0000000000250028002B1E
:1015E0000000000000230026002900040404040475
:1015F00004040402020202020203030303030301C0
:101600000204081020408001020408102001020496
:101610000810200000000800020100000304070079
:1016200000000000000000006F1D11241FBECFEF5E
:10163000D8E0DEBFCDBF11E0A0E0B1E0EEE7FBE413
:1016400002C005900D92A038B107D9F724E0A0E8B8
:10165000B1E001C01D92AF30B207E1F71BE0C5E178
:10166000DBE004C02197FE010E94B225C431D107FE
:10167000C9F70E94D11E0C94BD250C940000833044
:1016800081F028F4813099F08230A9F008958730F4
:10169000A9F08830C9F08430B1F4809180008F7D4A
:1016A00003C0809180008F7780938000089584B577
:1016B0008F7784BD089584B58F7DFBCF8091B00076
:1016C0008F778093B00008958091B0008F7DF9CF1F
:1016D000CF93DF93282F30E0F901ED5EF94E84912E
:1016E000F901E150FA4ED491F901E551FA4EC49155
:1016F000CC23A1F081110E943F0BEC2FF0E0EE0F04
:10170000FF1FEF51FA4EA591B491EC91ED2381E0CA
:1017100090E009F480E0DF91CF91089580E090E0BF
:10172000FACF1F93CF93DF93282F30E0F901ED5EBE
:10173000F94E8491F901E150FA4ED491F901E55145
:10174000FA4EC491CC23A9F0162F81110E943F0BB1
:10175000EC2FF0E0EE0FFF1FE952FA4EA591B49185
:101760008FB7F894EC91111108C0D095DE23DC936B
:101770008FBFDF91CF911F910895DE2BF8CFCF93CC
:10178000DF9390E0FC01E150FA4E249185519A4E8E
:10179000FC0184918823C9F090E0880F991FFC0117
:1017A000E353FA4EA591B491FC01E952FA4EC5916A
:1017B000D49161110DC09FB7F8948C91209582232C
:1017C0008C938881282328839FBFDF91CF91089530
:1017D000623051F49FB7F8943C91822F8095832317
:1017E0008C93E8812E2BEFCF8FB7F894EC912E2BB2
:1017F0002C938FBFEACF2091230190E4299F900181
:1018000011248E50822B80937C0080917A0080641A
:1018100080937A0080917A0086FDFCCF80917800D9
:101820009091790008953FB7F89480917502909156
:101830007602A0917702B091780226B5A89B05C0E8
:101840002F3F19F00196A11DB11D3FBFBA2FA92F3F
:10185000982F8827BC01CD01620F711D811D911D3C
:1018600042E0660F771F881F991F4A95D1F70895A8
:10187000089508950895AF92BF92CF92DF92EF92AC
:10188000FF920F931F93CF93DF936C017B018B012A
:10189000040F151FEB015E01AE18BF08C017D1077A
:1018A00059F06991D601ED91FC910190F081E02D04
:1018B000C6010995892B79F7C501DF91CF911F9159
:1018C0000F91FF90EF90DF90CF90BF90AF90089571
:1018D000FC01538D448D252F30E0842F90E0821B36
:1018E000930B541710F0CF96089501970895FC01BB
:1018F000918D828D981761F0A28DAE0FBF2FB11D13
:101900005D968C91928D9F5F9F73928F90E008956A
:101910008FEF9FEF0895FC01918D828D981731F024
:10192000828DE80FF11D858D90E008958FEF9FEF78
:101930000895FC01918D228D892F90E0805C9F4F4E
:10194000821B91098F739927089589EC92E00E9478
:10195000990C21E0892B09F420E0822F089580E082
:1019600090E0892B29F00E94A50C81110C940000B5
:101970000895FC01A48DA80FB92FB11DA35ABF4F24
:101980002C91848D90E001968F739927848FA6897E
:10199000B7892C93A089B1898C91837080648C93D2
:1019A000938D848D981306C00288F389E02D808181
:1019B0008F7D80830895EF92FF920F931F93CF93B3
:1019C000DF93EC0181E0888F9B8D8C8D98131AC07A
:1019D000E889F989808185FF15C09FB7F894EE8961
:1019E000FF896083E889F9898081837080648083BE
:1019F0009FBF81E090E0DF91CF911F910F91FF9009
:101A0000EF900895F62E0B8D10E00F5F1F4F0F73B0
:101A10001127E02E8C8D8E110CC00FB607FCFACF6B
:101A2000E889F989808185FFF5CFCE010E94B90C44
:101A3000F1CFEB8DEC0FFD2FF11DE35AFF4FF0823C
:101A40009FB7F8940B8FEA89FB8980818062CFCFA2
:101A5000CF93DF93EC01888D8823B9F0AA89BB89E5
:101A6000E889F9898C9185FD03C0808186FD0DC0D0
:101A70000FB607FCF7CF8C9185FFF2CF808185FFF1
:101A8000EDCFCE010E94B90CE9CFDF91CF9108953F
:101A90002091EF01260F3327331F21323105ECF45B
:101AA00020919F02FC0190E080E0243069F082E008
:101AB0000895A091EF012191AC0141535E4FA40F15
:101AC000B52FB11D2C930196861798F38091EF01E5
:101AD000680F6093EF0180E0089581E0089510920F
:101AE0009F0281E080939E021092790261E082E180
:101AF0000E94910B61E083E10E94910BE9EBF0E021
:101B000080818E7F808380818D7F808388E4809335
:101B1000B80085E48093BC000895CF93DF9391E0F3
:101B20009093CE018823B9F0C091B800D091BA004B
:101B30008091BC008A7B8093BC0060E082E10E94BF
:101B4000910B60E083E10E94910B0E946F0DD09396
:101B5000BA00C093B800DF91CF910895CF92DF9281
:101B6000EF92FF920F931F93CF93DF93D091C80210
:101B700081E0D13208F09CC0C091C7020E94130CD2
:101B80006B017C0180919F0281116CC082E0809387
:101B90009F0281E080939E028FEF80939D021092BE
:101BA0009C02D0939B02A7EAB2E0EBE7F2E080E070
:101BB000D8138DC010927A0280917A02CC0FC82B74
:101BC000C0937A0280917902813009F084C010922A
:101BD00079020E94130C6B017C0180917A02809340
:101BE000BB008091A1029091A202A091A302B091AA
:101BF000A402892B8A2B8B2BA1F00E94130C00913D
:101C0000A1021091A2022091A3023091A4026C19AA
:101C10007D098E099F09061717072807390708F459
:101C200042C08091BC0083FDD8CF85EC8093BC007E
:101C30000E94130C6B017C0180919F02823009F499
:101C40004CC080919D028F3F09F469C080919D0234
:101C5000803209F466C080919D02803309F463C02C
:101C600084E026C08091A1029091A202A091A302DB
:101C7000B091A402892B8A2B8B2B09F483CF0E946D
:101C8000130C0091A1021091A2022091A3023091A5
:101C9000A4026C197D098E099F09061717072807EA
:101CA000390708F06FCF8091A0020E948D0D85E06A
:101CB0001092A6021092C8021092A502DF91CF9155
:101CC0001F910F91FF90EF90DF90CF9008959D911D
:101CD00091938F5F6DCF85EEA9CF8091A1029091F6
:101CE000A202A091A302B091A402892B8A2B8B2B74
:101CF00009F4A2CF0E94130C0091A1021091A2023C
:101D00002091A3023091A4026C197D098E099F09CC
:101D1000061717072807390708F08ECFC4CF80E0D1
:101D2000C7CF82E0C5CF83E0C3CF0895E09117020B
:101D300080911602E81730F4F0E0E255FE4F808102
:101D400090E008958FEF9FEF089590911702809192
:101D500016022FEF3FEF981748F4E92FF0E0E25515
:101D6000FE4F208130E09F5F90931702C9010895D4
:101D70008091160290911702891B990B0895CF92BA
:101D8000DF92EF92FF920F931F93CF93DF937C012B
:101D9000CB018A012091A502222389F0EB016B017E
:101DA000C40ED51ECC15DD0569F06991D701ED9102
:101DB000FC910190F081E02DC7010995F3CF642FCC
:101DC0000E94480DC801DF91CF911F910F91FF90A4
:101DD000EF90DF90CF900895CF93DF931F92CDB710
:101DE000DEB769832091A5022223F9F02091C80271
:101DF000203258F021E030E0FC013383228390E070
:101E000080E00F90DF91CF9108958091A602E82F96
:101E1000F0E0E955FD4F998190838F5F8093A60292
:101E20008093C80281E090E0ECCF61E0CE010196A2
:101E30000E94480DF7CFCF93DF93EC018D85882367
:101E400029F081508D87DF91CF9108959C818E81FB
:101E50009817C8F788896827E881F9810084F18597
:101E6000E02D42E0CE0109958C818F5F8C83EBCF12
:101E7000DC011F967C936E931E97FB018491319633
:101E8000E491F82F319719F419961C92089581E086
:101E900019968C930895DC01ED91FC910084F185F5
:101EA000E02D40E009940F931F93CF938C01FC0128
:101EB0006483C085C60F6C2F6F700E944B0F6C2F10
:101EC00062956F706061C801CF911F910F910C9462
:101ED0004B0FFC012781269526952695621738F42D
:101EE00065832385620F6770606B0C944B0F0895B8
:101EF0001F93CF93DF93EC01142F8E81681718F492
:101F0000CE010E94530F612FCE01DF91CF911F911F
:101F10000C94690FCF92DF92EF92FF920F931F9371
:101F2000CF93DF93EC01F62EC42ED22E1D868F8127
:101F3000869586958695081710F00FEF080F1D2DD2
:101F4000011780F0412F6F2DCE010E94780FEF2CEA
:101F5000CE1430F06889CE010E941B0FE394F8CFB5
:101F60001F5FEECF4D2D6F2DCE01DF91CF911F91D1
:101F70000F91FF90EF90DF90CF900C94780F0F931C
:101F8000DC0115962C9115971E96ED91FC911F97EB
:101F900000E0309779F03396E491F0E0379683E0F3
:101FA000F595E7958A95E1F751960C9151970E9F1B
:101FB000002D1124EFEFE20F0E0F16964C9116979D
:101FC000415014966C911497CD010E948A0F0F9185
:101FD00008952F923F924F925F926F927F928F92CD
:101FE0009F92AF92BF92CF92DF92EF92FF920F93A8
:101FF0001F93CF93DF9300D000D000D01F92CDB7B6
:10200000DEB79F838E83DC011E968D919C91009795
:1020100009F45DC1FC013296549031962491E22E70
:10202000F12CB7E0EB0EF11C33E0F594E7943A9510
:10203000E1F7E98231963491319644916D3031F572
:10204000EE81FF81868181111BC081E090E027969F
:102050000FB6F894DEBF0FBECDBFDF91CF911F91B9
:102060000F91FF90EF90DF90CF90BF90AF909F9037
:102070008F907F906F905F904F903F902F9008953A
:1020800060E08E819F810E94530FDFCF6A3009F09C
:1020900046C0AE81BF8116968C911697882321F099
:1020A00060E0CD010E94530FEE81FF8181898E9DFA
:1020B000E02C112465816E0D8485882349F0978179
:1020C0009695969596958E2D891B860F18162CF051
:1020D0008E819F810E94690FB8CFAE81BF811B9610
:1020E0002C911B97820F87701B968C931B979E19C0
:1020F00015969C931597CD010E94BF0FEE81FF812D
:102100008485813009F0A1CF6385660F660F660F65
:102110006F7362876064CF010E944B0F96CF631785
:1021200060F1A32FA40FBB27BB1F6A171B062CF55A
:10213000631B212C8C010A5F1F4FEE81FF815185AB
:102140003189539F302D11243D83211014C0FC018F
:1021500034910196FC018491932F0297A0F45E9C28
:1021600090015F9C300D1124629FC001639F900D10
:102170001124080F191F612C28C0603209F0A7C074
:1021800022242394D7CF277088E0682E621A211169
:1021900001C0612CF80120E090E080E0621731F08E
:1021A0003491830F911D2F5F3196F8CFF801E60F20
:1021B000F11D5490E89EF001E99EF00DF89EF00D9F
:1021C0001124E40FF11D0E0F1F1FAE81BF81149665
:1021D000BC91BA83EE81FF81F581FB83AE81BF8123
:1021E0001D96BC91BC83852C912CAA24A394B12C60
:1021F000312CE9813E1608F068C0412CAE81BF81C8
:1022000051968C915197481608F058C0EC811D9654
:10221000EC93311002C0442051F0AE81BF8115967D
:102220004C9115974F5F6A81CD010E94780FD12C98
:10223000C12CC514B0F5712C211004C0F801EC0DAF
:10224000FD1D7490662061F0EA14FB0449F4E72D4B
:10225000F0E0062C02C0F595E7950A94E2F77E2E91
:10226000EE81FF818189823079F44420B1F072944B
:102270008FE07822E72DF0E0E453FC4E7490672D58
:102280008E819F810E941B0F672D8E819F810E94EE
:102290001B0F3FEFC31AD30ACCCFF72DFF707F2E51
:1022A000E9CFD12C8D81D81639F060E08E819F81E5
:1022B0000E941B0FD394F6CF4394A0CF3394AFEF7B
:1022C000AA1ABA0A080D191D94CF6B8101CF90E0AC
:1022D00080E0BDCE0F931F93CF93DF938C01D0E0AE
:1022E000C0E0F801EC0FFD1F6491662341F08BEF15
:1022F00093E00E94E90F892B11F02196F2CFCE01D5
:10230000DF91CF911F910F910895682F8BEF93E08C
:102310000C94E90F0F93CF93DF93EC011B861A8681
:1023200060E40E944B0F0F810695069506950150BB
:102330004E81415020E060E0CE010E948A0FDF9183
:10234000CF910F910895EF92FF920F931F93CF9328
:10235000DF93FC017B01CAE0D0E0CB01BE010E940B
:102360008325482FCB01BE010E9483259C01C70114
:1023700064E670E00E948325CB01BE010E948325A4
:102380008C01C70168EE73E00E948325CB01BE017A
:102390000E94832550E3580F009709F450E25083C0
:1023A000009721F450E20115110511F050E3500F90
:1023B0005183892B29F4012B19F42115310561F082
:1023C000205D2283405D43831482DF91CF911F9172
:1023D0000F91FF90EF90089520E2F3CFCF92DF921C
:1023E000EF92FF92C0902401D09025010D2C000C9B
:1023F000EE08FF08209156023091570250E040E06D
:102400002F5F3340410951096091260170912701E6
:10241000072E000C880B990B6C197D098E099F09FA
:102420000E94672521E03CEF4FEF5FEF0E940C25F3
:10243000C20ED31EE41EF51ED0922001C0921F01D1
:10244000FF90EF90DF90CF900895CF92DF92EF92C0
:10245000FF920F931F93CF93DF93EC016A017B01EF
:1024600088810E94680B2985892B09F58B859C85BD
:10247000AD85BE8521112CC097018601081B190B63
:102480002A0B3B0BD901C801893C9105A105B10577
:1024900058F081E08987CB86DC86ED86FE86CF8684
:1024A000D88AE98AFA8A1A8690E080E008C0222356
:1024B000D9F38A8519861A8691E0892790E0DF9101
:1024C000CF911F910F91FF90EF90DF90CF900895E3
:1024D000B701A601481B590B6A0B7B0B89819A81B6
:1024E000AB81BC81481759076A077B07E8F28A85E8
:1024F000811109C081E08A87CF86D88AE98AFA8A61
:1025000082E090E0DCCF8D819E81AF81B88500971D
:10251000A105B10549F24F85588969897A899701E2
:102520008601041B150B260B370BB901A8014817B0
:1025300059076A077B0708F4B7CFDECFCF92DF9247
:10254000EF92FF920F931F93CF93DF9385E10E9449
:10255000FB0B26EB35E0DC010E94AB25CC24CA94B2
:1025600023E0D22EE12CF12CA70196010E940C252C
:10257000E9013093AC012093AB0184E10E94FB0B95
:1025800026EB35E0DC010E94AB25A70196010E94F5
:102590000C2589013093AA012093A9018FE00E94A4
:1025A000FB0B26EB35E0DC010E94AB25A701960171
:1025B0000E940C25C9013093A8012093A7010C1794
:1025C0001D0764F0021713074CF0043A114034F071
:1025D00081E08093A601109218020BC0C817D9079A
:1025E0008CF0C43AD14074F081E0809318021092CC
:1025F000A601DF91CF911F910F91FF90EF90DF9097
:10260000CF9008951092A601E6CF0F931F93CF931A
:10261000DF93FC019B01EB0177FF04C0CC27DD2792
:10262000C61BD70BCE016AE070E00E9497258B0194
:10263000482F80E237FD8DE2808360E20A30110589
:1026400034F0CE0164E670E00E949725605D6183FE
:10265000C8016AE070E00E949725805D82838EE267
:102660008383405D44831582DF91CF911F910F9149
:102670000895209121013091220128173907D1F4C2
:1026800080918401909185010197A9F410928501B0
:102690001092840188EE93E09093250180932401A9
:1026A00020ED37E030932701209326019093F70324
:1026B0008093F603089581E090E0909385018093E4
:1026C000840184EF91E0909325018093240184ECB0
:1026D00099E0909327018093260180ED97E0E6CF63
:1026E0000F931F9383E00E94680B019769F40E9487
:1026F000130C609380017093810180938201909309
:1027000083011F910F9108950E94130C0091800185
:10271000109181012091820130918301DC01CB0174
:10272000801B910BA20BB30B8C019D01045F114028
:1027300021093109013D17402105310510F780932A
:102740001D0290931E02A0931F02B093200281E00D
:10275000809321022FB7F8948091710290917202B8
:10276000A0917302B09174022FBF809319029093CD
:102770001A02A0931B02B0931C02C3CF0F931F93A6
:10278000CF93DF93EC01062F142F8B89813120F436
:10279000882329F0411103C00E94AE0D1B8A8B894A
:1027A000811112C08A8991E09093A5028093C7029B
:1027B0001092A6021092C80260E4111101C060E0FC
:1027C00086E693E00E94EC0E602F86E693E00E947E
:1027D000EC0E123041F48B898F5F8B8BDF91CF91A0
:1027E0001F910F9108950E94AE0D1B8AF7CF089597
:1027F00090E080E008958F929F92AF92BF920F93E6
:102800001F93CF93DF93CDB7DEB7A1970FB6F894A0
:10281000DEBF0FBECDBF19A2423008F44AE08E01E0
:102820000F5D1F4F842E912CB12CA12CA50194017A
:102830000E943625E62FB901CA01EA3044F5E05D71
:10284000D801EE938D01232B242B252B79F790E0D3
:1028500080E0109769F0FD0101900020E9F73197C1
:10286000AF014A1B5B0BBD018BEF93E00E943B0C59
:10287000A1960FB6F894DEBF0FBECDBFDF91CF910A
:102880001F910F91BF90AF909F908F900895E95C3A
:10289000D7CFFC0101900020E9F73197AF01481B29
:1028A000590BBC018BEF93E00C943B0CCF92DF9261
:1028B000EF92FF92CF93DF936C01990FEE08FF0820
:1028C000F7FE17C08DE20E948511EC01662777277D
:1028D000CB016C197D098E099F094AE00E94FB1308
:1028E0008C0F9D1FDF91CF91FF90EF90DF90CF90E5
:1028F00008954AE0C701B601DF91CF91FF90EF90B4
:10290000DF90CF900C94FB138F929F92AF92BF9267
:10291000CF92DF92EF92FF920F931F93CF93C82F26
:1029200080912101909122018032910509F029C105
:102930008091220281113FC0CC2309F4A5C38BEF03
:1029400093E00E948A1168E97EE08BEF93E00E9499
:10295000380F81E080930C0441E06AE08BEF93E054
:102960000E94780F88E89EE00E946A1166EB7AE088
:102970008BEF93E00E94380F43E063E08BEF93E02E
:102980000E94780F80EA9AE00E946A1146E068E0AF
:102990008BEF93E00E94780F88E291E0CF911F9136
:1029A0000F91FF90EF90DF90CF90BF90AF909F90EE
:1029B0008F900C944914CC2309F442C38BEF93E01D
:1029C0000E948A1165EB78E08BEF93E00E94380F4C
:1029D00081E080930C0440E060E08BEF93E00E9484
:1029E000780F8CEA98E00E946A1142E060E08BEF79
:1029F00093E00E94780F87EA98E00E946A1144E011
:102A000060E08BEF93E00E94780F82EA98E00E94EA
:102A10006A1146E060E08BEF93E00E94780F8DE949
:102A200098E00E946A118FEF9FEF909312018093BC
:102A300011019093100180930F0190930E018093E8
:102A40000D0142E06EE18BEF93E00E94780F8091E0
:102A5000A9019091AA0104E610E0B8010E9497250F
:102A6000CB010E9456148EE20E9485118091A9012B
:102A70009091AA01B8010E9497256AE070E00E9437
:102A80009725CB010E9456148BE998E00E946A11A9
:102A90008BEF93E00E94BF0F8091A9019091AA0152
:102AA0009093120180931101CC2309F4D5C244E024
:102AB0006EE18BEF93E00E94780F8091AB019091D3
:102AC000AC0104E610E0B8010E949725CB010E94FA
:102AD00056148EE20E9485118091AB019091AC0159
:102AE000B8010E9497256AE070E00E949725CB010B
:102AF0000E94561489E998E00E946A118BEF93E0D6
:102B00000E94BF0F8091AB019091AC019093100196
:102B100080930F01CC2309F4ABC246E06EE18BEF4A
:102B200093E00E94780F8091A7019091A80104E69C
:102B300010E0B8010E949725CB010E9456148EE246
:102B40000E9485118091A7019091A801B8010E946F
:102B500097256AE070E00E949725CB010E945614E9
:102B600087E998E00E946A118BEF93E00E94BF0F03
:102B70008091A7019091A80190930E0180930D017F
:102B800083C2CC2309F48CC28BEF93E00E948A119C
:102B900065EB78E08BEF93E00E94380F8FEF9FEFAB
:102BA00090930C0180930B019093A5018093A40155
:102BB0009093A3018093A2019093A1018093A0011F
:102BC00090939F0180939E0190939D0180939C011F
:102BD00090939B0180939A0190939901809398011F
:102BE000909397018093960146E060E08BEF93E02D
:102BF0000E94780F89E898E00E946A1147E060E03F
:102C00008BEF93E00E94780F81E898E00E946A11B0
:102C100065EB78E08BEF93E00E94380F40E060E0D6
:102C20008BEF93E00E94780F8BEF93E00E94BF0F31
:102C3000809121019091220182309105F1F138F4C7
:102C4000009781F0019761F188E198E013C0883026
:102C50009105C9F18031910599F10497A9F784E2B2
:102C600098E008C080919401909195010197A9F492
:102C70008EE698E00E946A118091210190912201D4
:102C800090930C0180930B01809194019091950198
:102C9000909397018093960117C28BE598E0EACF55
:102CA00089E498E00E946A1145E060E08BEF93E0D0
:102CB0000E94780F81E498E0DDCF8AE398E0DACFD4
:102CC00080E398E0D7CF80E298E0D4CF65EB78E05E
:102CD0008BEF93E00E94380F40E068E28BEF93E0C7
:102CE0000E94780F80913E02882349F18BEF93E098
:102CF0000E94BF0F80913E0280939301CC2309F480
:102D0000F2C141E06FE08BEF93E00E94780F66E93B
:102D100070E08BEF93E00E94380F82E080930C0408
:102D20008091230260911F017091200181110CC0DC
:102D300080E091E00E94A31180E091E064C088E00F
:102D400098E00E946A11D6CF8091210190912201D2
:102D5000089709F070C00091F6031091F703011570
:102D60001105D9F080912401909125019B01281B28
:102D7000390BA8EEB3E00E945825980150E040E0DE
:102D80000E943625293E83E038074105510520F091
:102D900028EE33E040E050E08901C8016AE070E0CD
:102DA0000E948325FB01382F60E2E436F10531F4FF
:102DB000C80168EE73E00E948325605D60930501A1
:102DC00080E2EA30F10558F0C80164E670E00E9444
:102DD0008325CB016AE070E00E948325805D8093AB
:102DE0000601CF016AE070E00E948325805D809338
:102DF00007018EE280930801305D30930901109243
:102E00000A0185E091E00E94491465EB78E08BEFC0
:102E100093E00E94380F81E080930C0480911F01A1
:102E2000909120019093A5018093A40180912302A9
:102E3000809392016AC16C5D754029E0269FC001B4
:102E4000279F900D11246AE070E00E94972585E08D
:102E500091E00E940513D5CF45E06AE28BEF93E045
:102E60000E94780FC501B401882799274AE00E9483
:102E7000FB138FE691E00E9449144AE0C701B601B6
:102E80000E94FB1381E791E00E9449148BEF93E0CD
:102E90000E94BF0F9092A1018092A001D0929F0149
:102EA000C0929E01CC2309F485C18091A60188239C
:102EB00009F480C146E060E38BEF93E00E94780F55
:102EC00083E791E00E94491446E06EE48BEF93E0C3
:102ED0000E94780F8091A9019091AA0164E670E0A8
:102EE0000E9497258C01CB010E94561484E990E042
:102EF0000E946A11C8016AE070E00E949725CB0128
:102F00000E9456148091A9019091AA019093990171
:102F10008093980153C1209198013091990180913B
:102F2000A9019091AA012817390721F647C18823E2
:102F300009F44BC120919801309199018091AB0126
:102F40009091AC012817390709F43FC146E060E3CE
:102F50008BEF93E00E94780F87E791E00E9449147D
:102F600046E06EE48BEF93E00E94780F8091AB0116
:102F70009091AC0164E670E00E9497258C01CB0132
:102F80000E94561482E990E00E946A11C8016AE02A
:102F900070E00E949725CB010E9456148091AB01EE
:102FA0009091AC0190939901809398010EC120916A
:102FB0002401309125012C5D3540C9E0C29FC0013C
:102FC000C39F900D11240AE010E0B8010E949725DC
:102FD0008CE891E00E940513209126013091270191
:102FE0002C5D3540C29FC001C39F900D1124B801D4
:102FF0000E94972586E891E00E9405138CE891E0F5
:103000000E94491488E890E087C160912401709182
:1030100025018CE891E00E94A3118CE891E00E94C8
:10302000491484E890E00E946A11809126019091F1
:1030300027010E94561481E890E00E946A1172C133
:1030400020911101309112018091A9019091AA0162
:103050002817390709F0F5CC20910F0130911001A4
:103060008091AB019091AC012817390709F01FCD71
:1030700020910D0130910E018091A7019091A8013E
:103080002817390709F049CDCF911F910F91FF9073
:10309000EF90DF90CF90BF90AF909F908F9008956A
:1030A00020910B0130910C018217930709F0B0CDEC
:1030B0002091960130919701809194019091950112
:1030C0002817390709F0A4CD8091210190912201A0
:1030D000089709F013CEC111F9CD90919301809119
:1030E0003E029813F3CD2091A4013091A501809167
:1030F0001F01909120012817390709F002CE909105
:103100009201809123029813FCCD8091210190912E
:103110002201019709F0C6CEC1110BC02091A20176
:103120003091A30180913002909131022817390724
:10313000B9F040E066E68BEF93E00E94780F609173
:1031400030027091310290E080E04AE00E94FB136F
:1031500080913002909131029093A3018093A2015B
:1031600060913A0270913B0280913C0290913D0245
:1031700028EE33E040E050E00E94362549015A0134
:1031800024E630E040E050E00E94362569017A01F3
:10319000C11162CE2091A0013091A10128153905FD
:1031A00009F05ACE20919E0130919F012C153D05CA
:1031B00009F052CE8091A6018111ADCE8091180206
:1031C000CC2309F4B4CE8111C1CE8091A601CC23C9
:1031D00009F4BDC0811162C080911802882379F082
:1031E0008091180281113BC0209198013091990182
:1031F0008091A7019091A8012817390781F146E035
:1032000060E38BEF93E00E94780F8BE791E00E94E0
:10321000491446E06EE48BEF93E00E94780F8091B2
:10322000A7019091A80164E670E00E9497258C01A7
:10323000CB010E94561480E990E00E946A11C801F7
:103240006AE070E00E949725CB010E94561480919D
:10325000A7019091A8019093990180939801C111C1
:103260001DC020919C0130919D018091240190917D
:1032700025012817390791F420919A0130919B017B
:1032800080912601909127012817390739F49091F0
:10329000920180912302981709F4F6CE47E06AE282
:1032A0008BEF93E00E94780F8BEF93E00E94BF0FAB
:1032B00047E06AE28BEF93E00E94780F809123024F
:1032C000882309F4A2CE80912101909122010897D0
:1032D00009F06DCE80E280938C0180938D0180E3B4
:1032E00080938E019EE290938F01809390011092C3
:1032F000910121E3209386018093870180938801C7
:103300009093890180938A0110928B018CE891E05F
:103310000E9449148CE890E00E946A1186E891E0CE
:103320000E944914809124019091250190939D0160
:1033300080939C01809126019091270190939B019D
:1033400080939A0180912302809392019DCE8823DD
:1033500009F446CF86CF0F931F93CF93DF93EC01F1
:1033600000912101109122010830110549F48230A9
:10337000910508F0A0C0DF91CF911F910F910895A2
:103380008230910509F4A1C050F4009789F0813092
:10339000910509F448C00C171D07C9F4ECCF803122
:1033A000910509F45BC08097B1F710922202F3CF28
:1033B000809194019091950101151105D1F001972B
:1033C000A9F480EF95E09093200180931F01109362
:1033D000180100931701D0932201C093210181E0CD
:1033E000DF91CF911F910F910C9484148CED95E097
:1033F000EACF019759F48CED95E0909320018093EA
:103400001F011092950110929401B5CF80EF95E0C5
:103410009093200180931F0181E090E090939501AB
:1034200080939401A8CF0130110509F4A4CF9093A3
:103430001A01809319010E94130C60933202709359
:10344000330280933402909335021092240210923A
:1034500025021092260210922702B9CF80E190E057
:103460000E9439131092B4031092B3031092B9035F
:103470001092BA031092BB031092BC031092B503D2
:103480001092B6031092B7031092B8031092A103E2
:103490001092A0031092A6031092A7031092A80303
:1034A0001092A9031092A2031092A3031092A403F6
:1034B0001092A50370CF8031910581F28032910581
:1034C00009F473CF029709F066CF82E090E00E9482
:1034D000391361CF0E94B82585ED8093BC0080919F
:1034E000A1029091A202A091A302B091A40207961A
:1034F000A11DB11D23E0B695A795979587952A95AF
:10350000D1F72091BC0024FD03C010929F020895C2
:103510004091A1025091A2026091A3027091A40275
:10352000452B462B472B69F30097A105B10541F0C8
:103530002AE22A95F1F700C00197A109B109E1CF6C
:103540008091A0020C948D0D1F920F920FB60F92D6
:1035500011242F933F938F939F93AF93BF938091A9
:10356000710290917202A0917302B0917402309135
:10357000700223E0230F2D3758F50196A11DB11DD0
:10358000209370028093710290937202A093730251
:10359000B09374028091750290917602A0917702A7
:1035A000B09178020196A11DB11D80937502909390
:1035B0007602A0937702B0937802BF91AF919F916A
:1035C0008F913F912F910F900FBE0F901F901895E4
:1035D00026E8230F0296A11DB11DD2CF1F920F9294
:1035E0000FB60F9211242F933F934F935F936F93D6
:1035F0007F938F939F93AF93BF93EF93FF93E0914C
:103600001501F09116010995FF91EF91BF91AF91CE
:103610009F918F917F916F915F914F913F912F91EA
:103620000F900FBE0F901F9018951F920F920FB61C
:103630000F9211242F933F934F935F936F937F9338
:103640008F939F93AF93BF93EF93FF93E0911301F9
:10365000F09114010995FF91EF91BF91AF919F9166
:103660008F917F916F915F914F913F912F910F902B
:103670000FBE0F901F9018951F920F920FB60F92CA
:1036800011242F933F934F935F936F937F938F9367
:103690009F93AF93BF93EF93FF9389EC92E00E94C7
:1036A000B90CFF91EF91BF91AF919F918F917F9155
:1036B0006F915F914F913F912F910F900FBE0F909F
:1036C0001F9018951F920F920FB60F9211242F93EF
:1036D0008F939F93EF93FF93E091D902F091DA02D9
:1036E0008081E091DF02F091E00282FD1BC09081B9
:1036F0008091E2028F5F8F732091E302821741F085
:10370000E091E202F0E0E753FD4F958F8093E202F3
:10371000FF91EF919F918F912F910F900FBE0F907E
:103720001F9018958081F4CF1F920F920FB60F92C1
:1037300011242F933F934F935F936F937F938F93B6
:103740009F93AF93BF93EF93FF938091B900887FCE
:10375000803609F44AC0F0F5883209F4A7C018F59C
:10376000803109F49BC0B8F4882309F4F9C088308B
:1037700009F494C0FF91EF91BF91AF919F918F9108
:103780007F916F915F914F913F912F910F900FBE5D
:103790000F901F901895883109F488C0803251F736
:1037A00080939D0214C0803409F49DC040F480339E
:1037B000B9F38833F9F680939D0285ECB0C080356B
:1037C00009F485C0883509F496C0883499F60E94BA
:1037D0006C1AD0CF883909F48CC038F5883729F0B5
:1037E00050F4883611F0803729F683E080939F02E9
:1037F0001092110257C0883809F47BC0803919F043
:10380000803809F0B7CF80911102803208F071C082
:10381000E091110281E08E0F809311028091BB0034
:10382000F0E0EF50FE4F80833DC0803B39F0E0F484
:10383000803A09F479C0883A09F09CCF84E08093FB
:103840009F021092F0011092EF01E0911402F091AA
:10385000150209958091EF0181110FC081E08093DD
:10386000EF011092CF0109C0803C09F4A6CF883C3B
:1038700009F4A3CF883B09F07DCFE091F00181E00E
:103880008E0F8093F001F0E0E153FE4F8081809332
:10389000BB009091F0018091EF0129C080917A02E4
:1038A0008093BB0085EC8093BC0064CF90919C0218
:1038B00080919B02981758F5E0919C0281E08E0F51
:1038C00080939C02F0E0E558FD4F8081E9CFE091C4
:1038D0009C0281E08E0F80939C028091BB00F0E0FF
:1038E000E558FD4F808390919C0280919B02981730
:1038F000C8F285E8D8CFE0919C0281E08E0F8093DA
:103900009C028091BB00F0E0E558FD4F80838091E0
:103910009E0281115CCF81E08093790284EA8093DA
:10392000BC0010929F0226CF85EC8093BC001092C1
:103930009F0280911102803230F4E0911102F0E098
:10394000EF50FE4F10826091110270E0E091120280
:10395000F091130281EF91E00995109211020ACFC4
:1039600010929D0234CF1F920F920FB60F92112426
:103970002F933F934F935F936F937F938F939F9377
:10398000AF93BF93CF93DF93EF93FF938091AD01FC
:10399000C0919603D0E087FF24C01092850010925A
:1039A00084008091AD018F5F8093AD018091AD0166
:1039B000082E000C990B8C179D0724F48091AD0103
:1039C0008C30C4F1809184009091850004968034FD
:1039D0009C4908F47AC080918400909185000496F7
:1039E00076C08091AD01082E000C990B8C179D07B5
:1039F000C4F6E091AD018E2FEE0F990BFC01EE0F96
:103A0000FF1FE80FF91FEE58FC4F808186FFC9CFDA
:103A1000E091AD018E2FEE0F990BFC01EE0FFF1F11
:103A2000E80FF91FEE58FC4F808160E08F730E9411
:103A3000910BB7CF2091840030918500E091AD01CA
:103A40008E2FEE0F990BFC01EE0FFF1FE80FF91FF1
:103A5000EE58FC4F81819281820F931F90938900D1
:103A600080938800E091AD018E2FEE0F990BFC0141
:103A7000EE0FFF1FE80FF91FEE58FC4F808186FF05
:103A800011C0E091AD018E2FEE0F990BFC01EE0FEE
:103A9000FF1FE80FF91FEE58FC4F808161E08F7324
:103AA0000E94910BFF91EF91DF91CF91BF91AF9168
:103AB0009F918F917F916F915F914F913F912F9146
:103AC0000F900FBE0F901F90189580E49CE9909383
:103AD0008900809388008FEF8093AD01E3CF10922F
:103AE000CC021092CB0288EE93E0A0E0B0E080938D
:103AF000CD029093CE02A093CF02B093D00221E4E6
:103B000031E03093CA022093C90225EC30E03093B3
:103B1000D6022093D50224EC30E03093D8022093D3
:103B2000D70220EC30E03093DA022093D90221EC66
:103B300030E03093DC022093DB0222EC30E0309363
:103B4000DE022093DD0226EC30E03093E002209389
:103B5000DF021092E2021092E3021092E40210924D
:103B6000E502109269031092680380936A039093B0
:103B70006B03A0936C03B0936D0383E591E0909386
:103B80006703809366031092FE031092FD03109268
:103B900007041092080410920A041092090410926B
:103BA0000B0481E080930C0485E691E09093FC0384
:103BB0008093FB03809196038C3008F0EEC091E077
:103BC000980F909396038093F80390E0FC01EE0F1A
:103BD000FF1FE80FF91FEE58FC4F88EB9BE0928324
:103BE00081838091260190912701209124013091B9
:103BF0002501821B930B9093F7038093F60384E0D7
:103C00008093E30380ED97E0A0E0B0E08093E403CD
:103C10009093E503A093E603B093E7031092E803C3
:103C20001092E9031092EA031092EB031092EC0356
:103C30001092ED031092EE031092EF031092F00336
:103C40001092F1031092F2031092F3031092F40316
:103C50001092F50335E03093D0038093D103909315
:103C6000D203A093D303B093D4031092D503109240
:103C7000D6031092D7031092D8031092D903109252
:103C8000DA031092DB031092DC031092DD03109232
:103C9000DE031092DF031092E0031092E103109212
:103CA000E20326E02093BD038093BE039093BF03FD
:103CB000A093C003B093C1031092C2031092C30338
:103CC0001092C4031092C5031092C6031092C7034A
:103CD0001092C8031092C9031092CA031092CB032A
:103CE0001092CC031092CD031092CE031092CF030A
:103CF0003093AA0344EF51E060E070E04093AB03DF
:103D00005093AC036093AD037093AE0384E690E0F0
:103D1000A0E0B0E08093AF039093B003A093B10311
:103D2000B093B2031092B3031092B4031092B50390
:103D30001092B6031092B7031092B8031092B90311
:103D40001092BA031092BB031092BC032093970306
:103D5000409398035093990360939A0370939B0345
:103D600080939C0390939D03A0939E03B0939F0325
:103D70001092A0031092A1031092A2031092A30329
:103D80001092A4031092A5031092A6031092A70309
:103D90001092A8031092A90308958FEF8093F8035F
:103DA00020CFCF93DF9300D000D000D0CDB7DEB7C7
:103DB000789484B5826084BD84B5816084BD85B506
:103DC000826085BD85B5816085BD80916E00816012
:103DD00080936E00109281008091810082608093B8
:103DE00081008091810081608093810080918000BA
:103DF0008160809380008091B10084608093B100E5
:103E00008091B00081608093B00080917A008460DE
:103E100080937A0080917A00826080937A0080910A
:103E20007A00816080937A0080917A008068809324
:103E30007A001092C100E091D902F091DA0282E09A
:103E40008083E091D502F091D6021082E091D702F2
:103E5000F091D8028FEC80831092E102E091DD02B4
:103E6000F091DE0286E08083E091DB02F091DC02DB
:103E7000808180618083E091DB02F091DC028081AF
:103E800088608083E091DB02F091DC0280818068B1
:103E90008083E091DB02F091DC0280818F7D808362
:103EA0001092230110921702109216021092A6028D
:103EB0001092C8020E946F0D88E39CE09093150257
:103EC0008093140289E39CE0909313028093120282
:103ED0008CE08093B80010920E048CE380930D0464
:103EE0001092FF0310920004E7ECF5E1E590F490E6
:103EF000E9ECF5E11491EAECF5E1E491E0930104D9
:103F0000EBECF5E1E491E0930204ECECF5E1E491F3
:103F1000E09303041A8219822981211780F4E98130
:103F2000FA81EE0DFF1D64918BEF93E00E944B0F21
:103F300049815A814F5F5F4F5A834983EDCF8BEFA1
:103F400093E00E948A1160EA8BEF93E00E944B0F8E
:103F500060EC8BEF93E00E944B0F6CED73E18BEF05
:103F600093E00E94380F8BEF93E00E948A118091BA
:103F7000F8038C3008F053C061E089E00E94BF0B69
:103F80008091F803282F30E0F901EE0FFF1FE20FB8
:103F9000F31FEE58FC4F9081907C996090839BE0DA
:103FA0009093F90397EE9093FA032CE0622F0E940E
:103FB0007725829FB001112430E020E0AB01420F51
:103FC000531FFA01EE0FFF1FE40FF51FEE58FC4FD1
:103FD000908196FD16C02F5F3F4F2C30310571F751
:103FE00081110FC01092800082E0809381001092B6
:103FF000850010928400B19A80916F008260809356
:104000006F00E091F8038E2F90E0FC01EE0FFF1F90
:10401000E80FF91FEE58FC4F80818064808362E0D6
:1040200085E00E94BF0B62E086E00E94BF0B62E069
:1040300084E00E94BF0B60E083E00E94BF0B60E061
:104040008EE00E94BF0B60E084E10E94BF0B60E045
:1040500085E10E94BF0B68E572E07A8369838EE098
:104060000E94FB0BA981BA818D939D93BA83A9838A
:1040700020916E0230916F02820F931F90936F0216
:1040800080936E02AC56B24051F76AE070E00E9435
:104090008325709357026093560290E080E00E945F
:1040A000F6248E3509F418C16EE590E080E00E9498
:1040B000FE2460E081E090E00E94FE241092230242
:1040C0000E949E120E94EE118091E3030E94680BF1
:1040D000892B09F00CC182E090E00E94AB1980E7C7
:1040E00093E1909316018093150180916900837F7D
:1040F000846080936900E99A809121019091220166
:104100008F3F910521F490E080E00E94AB1981E09F
:104110000E948414BAE02B2E312C0E94130C698368
:104120007A838B839C838FB7F89440907102509070
:10413000720260907302709074028FBF20916C02C3
:1041400030916D023E832D838901000F111F085AA3
:104150001D4FE0906E02F0906F02D8012D913C91BE
:10416000E21AF30A8EE00E94FB0BF8019183808330
:10417000E80EF91EF0926F02E0926E028D819E8130
:104180000196B1010E94972590936D0280936C0275
:10419000C701B1010E9483257093570260935602B4
:1041A000F8942091210280911D0290911E02A0910D
:1041B0001F02B09120022111109221027894222333
:1041C00039F09093400280933F02F1E0F093410276
:1041D0002FB7F8948091710290917202A0917302AE
:1041E000B09174022FBF4091190250911A02609150
:1041F0001B0270911C02841B950BA60BB70B853616
:104200009105A105B10530F01092410210924002D3
:1042100010923F0280914102882351F08091210148
:1042200090912201049721F084E090E00E94AB1964
:104230008091410281110CC0809121019091220155
:10424000049731F480911701909118010E94AB19E5
:104250008091520290915302A0915402B091550264
:10426000A3019201281B390B4A0B5B0BDA01C90130
:10427000893C9105A105B10550F00E949E12409223
:1042800052025092530260925402709255028FB7BC
:10429000F894C0907102D0907202E0907302F09096
:1042A00074028FBF40912101509122015E834D83A2
:1042B0004032510509F021C1B701A6018DEB93E011
:1042C0000E94251282309105D1F4809117019091BE
:1042D00018010E94AB1920C081E090E00E94F624F2
:1042E00091E0811101C090E090932302E9CE80918A
:1042F0001802882309F4F3CE88E090E0EECE01970F
:10430000C1F48091220290E00196817099278093F8
:10431000220281E00E948414809121019091220167
:104320008230910509F444C308F09EC1019709F455
:10433000E1C14091F8034C30B0F560911F017091DC
:1043400020018091F90328E830E0281B310987FD1E
:104350003395C901880F991F880F991F681779072E
:104360008CF08091FA03A8E5B2E0A81BB10987FDA3
:10437000B395CD01880F991F880F991F681779078A
:104380000CF4CB010297880F991F6FB7F89450E097
:104390009A01220F331F240F351FF901EE58FC4FED
:1043A000928381836FBF80914E0290914F02A091C2
:1043B0005002B0915102A3019201281B390B4A0B04
:1043C0005B0BDA01C901C297A105B10558F080E085
:1043D0000E94841440924E0250924F02609250020A
:1043E000709251020E94130C6B017C0129813A8169
:1043F0004B815C81C21AD30AE40AF50A40914A0251
:1044000050914B0260914C0270914D024C0D5D1D1C
:104410006E1D7F1D40934A0250934B0260934C02E5
:1044200070934D02409146025091470260914802BC
:1044300070914902CB01BA016F5F7F4F8F4F9F4F41
:10444000609346027093470280934802909349021A
:1044500000911B0110911C0120911D0130911E0142
:10446000C016D106E206F30640F4C0921B01D092BA
:104470001C01E0921D01F0921E0100914202109178
:10448000430220914402309145020C151D052E0572
:104490003F0540F4C0924202D0924302E0924402AF
:1044A000F092450224E630E040E050E00E943625DC
:1044B000672B682B692BA1F44FE352E46FE070E0A7
:1044C00040931B0150931C0160931D0170931E01CA
:1044D000109242021092430210924402109245023E
:1044E00060E070E0672B09F418CE0E94A50C8823C9
:1044F00009F410CE0E9400000DCE6D817E816031E6
:10450000710509F063C0B701A60183EE93E00E9434
:1045100025128130910529F480E190E00E94391341
:10452000FBCE029709F4D1CEB701A6018AEA93E047
:104530000E9425128130910591F480911F01909184
:104540002001209126013091270101962817390773
:1045500008F4C9019093200180931F01DDCE0297DA
:1045600051F480911F0190912001209126013091FA
:1045700027010596EBCFB701A60187E993E00E94DA
:1045800025128130910571F420911F013091200195
:10459000809124019091250182179307DCF6C901CF
:1045A0000197D8CF029709F0C4CE80912401909151
:1045B000250120911F0130912001AC014C5F5F4F1C
:1045C000421753073CF6C9010597C4CFB701A601AE
:1045D00083EE93E00E94251281309105E9F482E098
:1045E00090E00E94AB19B701A60180ED93E00E9414
:1045F000251281309105C9F490E080E00E94AB194A
:10460000B701A6018DEB93E00E9425128130910540
:1046100029F581E090E05DCE029729F78D819E819A
:10462000049709F380E190E0DCCF029749F790917D
:104630002302A1E09A279D839093230281E090E0DA
:104640000E94F624BD81B81729F06B2F81E090E01D
:104650000E94FE2481E00E948414D2CF029709F0C8
:104660005BCE80E290E035CE8430910509F4AAC19A
:10467000089709F05ECE80912401909125019E83D8
:104680008D836C01990FEE08FF082091560230913E
:10469000570250E040E02F5F3340410951096091DB
:1046A000260170912701072E000C880B990B6C19BD
:1046B0007D098E099F090E94672521E03CEF4FEF9D
:1046C0005FEF0E940C25C20ED31EE41EF51E8D81E5
:1046D0009E8109968C159D051CF091E090933E02F9
:1046E00080913E02882309F466C1D0922001C092D5
:1046F0001F011FCE0E94130C6B017C0120915602FA
:104700003091570250E040E02F5F3340410951099A
:10471000ACE6B7E00E942B2521E03CEF4FEF5FEFC6
:104720000E940C2549015A01E4E68E0E911CA11C41
:10473000B11C80923A0290923B02A0923C02B0924D
:104740003D020091190110911A0120911F01309131
:1047500020013E832D830130110509F049C04091AD
:10476000360250913702609138027091390280917F
:104770002601909127012817390734F44C155D055F
:104780006E057F0508F05AC0C416D506E606F70682
:1047900048F4C0923202D0923302E0923402F09296
:1047A0003502C7CD4FEF5FEF50931A0140931901C7
:1047B000A8EEB3E0A50194010E942B2560577F422B
:1047C0008C4F9F4FC60ED71EE81EF91EC0923602B0
:1047D000D0923702E0923802F09239028091300292
:1047E0009091310201969093310280933002A1CDD5
:1047F0000F3F100719F54091360250913702609132
:104800003802709139028091240190912501AD8187
:10481000BE818A179B072CF44C155D056E057F053C
:1048200068F4C416D506E606F70608F4B2CFE1E050
:10483000F0E0F0931A01E0931901BACF80912C02B5
:1048400090912D02A0912E02B0912F028816990608
:10485000AA06BB0611F1E091F603F091F703309739
:1048600009F48AC0A8EEB3E0A50194010E942B25AB
:104870009F0150E040E00E940C25209328023093D5
:10488000290240932A0250932B0280922C0290928C
:104890002D02A0922E02B0922F0220912802309178
:1048A000290240912A0250912B0221153105410520
:1048B000510509F43ECD8090320290903302A090D1
:1048C0003402B0903502C0923202D0923302E092AC
:1048D0003402F09235026091240270912502809199
:1048E000260290912702681979098A099B096C0DA3
:1048F0007D1D8E1D9F1D6093240270932502809361
:10490000260290932702621773078407950708F41D
:1049100010CD0E9436256B017C016D817E81CB011B
:10492000770FAA0BBB0B0130110539F0509540955C
:10493000309521953F4F4F4F5F4F820F931FA41F1C
:10494000B51F2091260130912701A901032E000CEB
:10495000660B770B84179507A607B707B4F030935B
:10496000200120931F01C0922402D0922502E092E0
:104970002602F0922702DDCC109228021092290222
:1049800010922A0210922B0280CF209124013091A4
:104990002501A901032E000C660B770B4817590758
:1049A0006A077B07E4F69093200180931F01DBCF19
:1049B0000E94EE11BECCAD81BE81B0932001A093C8
:1049C0001F01B7CC80914102882349F080913F02BA
:1049D000909140029093200180931F01AACCECEDAE
:1049E000F5E0F0932001E0931F01A3CCF999FECFED
:1049F00092BD81BDF89A992780B50895262FF9991F
:104A0000FECF1FBA92BD81BD20BD0FB6F894FA9AB1
:104A1000F99A0FBE01960895052E97FB1EF4009497
:104A20000E94232557FD07D00E94362507FC03D09E
:104A30004EF40C94232550954095309521953F4F89
:104A40004F4F5F4F089590958095709561957F4F7A
:104A50008F4F9F4F08950E945825A59F900DB49F9A
:104A6000900DA49F800D911D11240895A1E21A2E8E
:104A7000AA1BBB1BFD010DC0AA1FBB1FEE1FFF1F02
:104A8000A217B307E407F50720F0A21BB30BE40B52
:104A9000F50B661F771F881F991F1A9469F7609599
:104AA0007095809590959B01AC01BD01CF01089553
:104AB000A29FB001B39FC001A39F700D811D11245F
:104AC000911DB29F700D811D1124911D0895DB0170
:104AD0008F939F930E942B25BF91AF91A29F800D32
:104AE000911DA39F900DB29F900D11240895991BC5
:104AF00079E004C0991F961708F0961B881F7A95D5
:104B0000C9F780950895AA1BBB1B51E107C0AA1FD6
:104B1000BB1FA617B70710F0A61BB70B881F991F5E
:104B20005A95A9F780959095BC01CD01089597FB02
:104B3000072E16F4009407D077FD09D00E94832534
:104B400007FC05D03EF4909581959F4F0895709590
:104B500061957F4F08950E945825B7FF0895821BE5
:104B6000930B0895EE0FFF1F0590F491E02D09942B
:0E4B700081E090E0F8940C94BD25F894FFCFFE
:104B7E0020202020002020202020000200FFFFFF08
:104B8E00FFFFFF3A0C3A0CFF0001003F420F00DC22
:104B9E0005FF0001E803D00756312E3520323032A2
:104BAE00362D30332D31352D3137323000000000A7
:104BBE0000DB0C3B0C680C280D990C770C8B0C0051
:104BCE00000000EC0EBF0EF813950EB80EA50E9653
:104BDE000E00000000E90F3B0CF813F713BE132E66
:104BEE0000730020494E004F5554005553420000AB
:00000001FF
